:03000000020006F5
:03005F0002000399
:0300030002006296
:2000620090E600E0FF74E75F90E6004410F090E100E4F5F012049A752065752130E4F52210
:12008200F51CF51D751E08751F0075825112038480FEBB
:0806CE00C0B40410100000008C
:06003500E478FFF6D8FD9F
:200013007908E94400601B7A019006CE7865759230E493F2A308B800020592D9F4DAF2753E
:0200330092FF3A
:20009400AF82E50D2508F512E50E3509F513903064E4F0EF2FFF751402903064E0FB6004B9
:2000B4007582002290E678E04480F090E678E0FB30E20C90000AC007120585D00780DA90EC
:2000D400E679EFF090E678E0FB20E007903064E0FB60F1903064E0FB60047582002290E6BC
:2000F40078E0FB20E2B390E678E0FB20E13690E678E0FB4440F090E678E0FB30E607903001
:2001140064E0FB60F1903064E0FB600475820022D514047582002290000AC007120585D0EC
:20013400070200AD7A007B00C3EA9512EB951340030201D9C3EA9508EB95095016EA250AA8
:20015400F8EB350BF9AC0C888289838CF01205DBFC801DEAC39508F8EB9509F9E8250FF8C2
:20017400E93510F9AE11888289838EF01205DBFC90E679ECF00ABA00010B90E678E0FE207C
:20019400E007903064E0FE60F1903064E0FE60047582002290E678E0FE30E2030200AD9072
:2001B400E678E0FE30E10302013C90E678E0FF4440F090E678E0FF30E607903064E0FF600E
:2001D400F17582002290E678E0FF4440F090E678E0FF30E607903064E0FF60F1903064E07E
:2001F400FF60047582002275820122AF82903064E4F0EF2FFF4307017401B51508E4B516CE
:200214000474018001E4FE903064E0FD6004758200227C007D0090E678E04480F090E67807
:20023400E0FB30E21090000AC007C006120585D006D00780D290E679EFF090E678E0FB2034
:20025400E007903064E0FB60F1903064E0FB60047582002290E678E0FB20E2AB90E678E093
:20027400FB20E11B90E678E0FB4440F090E678E0FB30E607903064E0FB60F175820022EED9
:20029400600890E678E0FB4420F090E679E0E4F51AF51B7401251AF8E4351BF9C3E89515C5
:2002B400E99516506990E678E0F920E007903064E0F960F1903064E0F960047582002290B7
:2002D400E678E0F930E20302021B7402251AF8E4351BF9E8B5150CE9B5160890E678E0F984
:2002F4004420F0A81AA91B051AE4B51A02051BAC1AAD1BE82517F8E93518F9AB1990E67990
:20031400E0FA888289838BF012047F0202A790E678E0FB20E007903064E0FB60F1903064DA
:20033400E0FB60047582002290E678E0FB30E20302021B90E678E04440F0EC2517FCED35CC
:2003540018FDAF1990E679E0FE8C828D838FF012047F90E678E0FF30E607903064E0FF6060
:20037400F1903064E0FF60047582002275820122858223E4F527F528AB1CAC1DC3E52795A3
:200394001EE528951F40030204167A0090E678E0FF30E4067A018C078F248A070AEF242417
:2003B400F98B06A7068A070AEF2424F9AE27AF280527E4B527020528EE2520FEEF3521FFEB
:2003D400AD228E828F838DF01205DBF78A08750900750A24750B00750C40E4F50DF50EF5E0
:2003F4000FF510F511852382C004C003120094E582D003D0047003F582220BBB00010C0289
:20041400039075820122AF827E0090E678E0FD30E4067E01AD2A8D308E050EED2430F9ACED
:2004340029A7048E08750900750A30750B00750C40E4F50DF50EF50FF510F5118F82C00700
:20045400120094E582D0077003F58222852B15852C16852D17852E18852F198F821201FF88
:0B047400E5827003F5822275820122F0
:1B047F0020F71130F6138883A88220F509F6A8837583002280FEF280F5F0227C
:20003B007800E84400600A7900759230E4F309D8FC7865E84400600C7901903000E4F0A30D
:04005B00D8FCD9FAFA
:20049A00D310AF01C3C0D085823285833385F034F53590E600E05418C423541FFBB4010049
:2004BA00E433FB60047B01801690E600E05418C423541FFABA01047A0280027A048A03D2EA
:2004DA00CDD2CC8B367537007538007539009071B075F00BE4C0031205F78532368533371D
:2004FA00853438853539120665A882A983AAF0FFD00308B8000909B900050ABA00010FEF6C
:20051A00C313EA13FAE913F9E813F874FFC398F874FF99FF8FCB7900EB60027401FFEF2890
:20053A00F5CAD2CAC29FD29EC29DD29C438780D299D0D092AF223098FD859982C29822AF60
:20055A008210990280FB8F9922AF82BF0A0A75820DC007120559D0078F82C007120559D061
:0B057A0007BF0D0675820A020559221A
:20058500AE82AF8390E600E05418C423541FFDB40100E433FD60067CB17D00801C90E600F0
:2005A500E05418C423541FFBBB01067A617B0180047AC27B028A048B058C368D37153674DC
:1605C500FFB536021537E536453770F11EBEFF011FEE4F70E42242
:0D0006007581391206CAE58260030200030D
:1C05DB0020F71430F6148883A88220F507E6A88375830022E280F7E49322E0222F
:2005F700AAF0FBE5828536F0A4FCADF0E5838536F0A42DFDE435F0FEE5828537F0A42DFD37
:20061700E5F03EFEE433FFEA8536F0A42EFEE5F03FFFE5838537F0A42EFEE5F03FFFE582C6
:200637008538F0A42EFEE5F03FFFEB8536F0A42FFFEA8537F0A42FFFE5838538F0A42FFF5C
:0E065700E5828539F0A42F8EF08D838C8222EF
:20066500FB7A20E4FCFDFEFFE5822582F582E58333F583E5F033F5F0EB33FB4017DAE980CE
:2006850042E5822582F582E58333F583E5F033F5F0EB33FBEC33FCED33FDEE33FEEF33FFFD
:2006A500EC9536ED9537EE9538EF95394013EC9536FCED9537FDEE9538FEEF9539FF438257
:0506C50001DABEEB228A
:0406CA007582002213
:00000001FF
