:03000000020006F5
:03005F0002000399
:03000300020139BE
:2000620090E6007410F00000000090E60174CBF000000000902580E4F5F0120161745BC0ED
:20008200E07409C0E07480C0E012027015811581158190E61274A0F00000000090E61374FE
:2000A20020F00000000090E6147460F00000000090E6157460F00000000090E6047480F033
:2000C2000000000090E6047402F00000000090E6047404F00000000090E6047406F0000078
:2000E200000090E6047408F00000000090E604E4F00000000090E618E4F00000000090E6F2
:20010200187411F00000000090E609740CF00000000090E670E4F00000000075B202758089
:20012200027474C0E07409C0E07480C0E0120270158115811581221200624380024380021C
:1F0142004380024380025380FD903200740BF0903200E014903200F0FF70F4E5AA80DB5E
:20095B0073657269616C20706F727420696E697469616C697A65640A006770696F20696EB1
:0B097B00697469616C697A65640A00A8
:06003500E478FFF6D8FD9F
:200013007900E94400601B7A009009917801759232E493F2A308B800020592D9F4DAF275E3
:0200330092FF3A
:20003B007800E84400600A7900759232E4F309D8FC7801E84400600C7901903200E4F0A36D
:04005B00D8FCD9FAFA
:20016100D310AF01C3C0D085820885830985F00AF50B90E600E05418C423541FFBB401002D
:20018100E433FB60047B01801690E600E05418C423541FFABA01047A0280027A048A03D226
:2001A100CDD2CC8B0E750F007510007511009071B075F00BE4C00312088485080E85090F0D
:2001C100850A10850B111208F2A882A983AAF0FFD00308B8000909B900050ABA00010FEFBD
:2001E100C313EA13FAE913F9E813F874FFC398F874FF99FF8FCB7900EB60027401FFEF28CD
:20020100F5CAD2CAC29FD29EC29DD29C438780D299D0D092AF223098FD859982C29822AF9C
:200221008210990280FB8F9922AF82BF0A0A75820DC007120220D0078F82C007120220D015
:0B02410007BF0D0675820A0202202292
:20024C00C00D85810D12022AD00D2285823185833285F033E4F52EF52FF530850C349002B4
:20026C004C020342C00D85810DE50D24FBFF8F34E4F52EF52FF530E50D24FBF8863108868E
:0D028C003208863390024C120342D00D223E
:20029900AF82C024C025C0261202A68007C022C0238F8222158115811581052CE4B52C0272
:2002B900052D22AF8274302FFF24C6500A74072FFF3000034307208F82020299E582FFC46C
:2002D900540FF582C0071202BCD007740F5FF5820202BC85820E85270F85281085291185D3
:2002F9002A12AA2B751320EA2AFAE512235401FF8A064EFAE50F250FF50FE51033F510E59A
:200319001133F511E51233F512C3EA950E4008EAC3950EFA430F01D513CD850F27851028E7
:2003390085112985122A8A2B22858222858323852E24852F25853026E4F52CF52DAD31AEBB
:2003590032AF338D828E838FF0120868FC74012DF531E43EF5328F33ECFF7003020849BF10
:2003790025028003020841C201C202C203C204C205C206C207C2087535007536007CFFAAC1
:2003990031AB32AE338A828B838EF0120868FFA3AA82AB838A318B328E33BF25078F8212F8
:2003B900029980998F3874D025385026E53824C64020BCFF12E53675F00AA4FD2F24D0F51B
:2003D9003670C2D20280BEEC75F00AA42F24D0FC80B3BF2E07BCFFAD7C0080A98F05BD6186
:2003F90000400CED248540075307DFD2008002C200BF2002806DBF2B028063BF2D02805908
:20041900BF42028063BF43028068BF44030205E8BF46030205FEBF480302039EBF49030235
:2004390005E8BF4A0302039EBF4C028040BF4F030205EFBF500302057DBF5302805CBF549A
:200459000302039EBF55030205F4BF58030205F9BF5A0302039E020602D20102039ED2039D
:2004790002039ED20402039ED20602039ED20702039E30060CE53414FE8E348E0187078084
:2004990011E53424FEFE8E348E018705098706198D078F8212029902060BE53424FDFE8E42
:2004B900348E01870309870509870619198B278D288E298B828D838EF0C004120850AD8263
:2004D900AE83D004BCFF028D0420012AC3ED95365024E536C39DF536AE368E031EEB6014DE
:2004F900758220C006C005C004120299D004D005D00680E68E368C06852782852883852989
:20051900F0120868FCFF60308E041EC3E464808CF063F08095F050208F82C006C005120296
:2005390099D005D006AA27AB28AC290ABA00010B8A278B288C2980C020010302060BC3EDD5
:200559009536400302060BE536C39DF536AE368E041EEC7003020609758220C0061202992D
:20057900D00680EBE53424FDFC8C348C01870209870309870419198A278B288C29AC29BC12
:20059900800040047F438014BC600040047F50800BBC400040047F4980027F588F82C00735
:2005B90012029975823A120299758230120299758278120299D007BF4902800BBF500280AA
:2005D900068528821202D58527821202D58023D20575350A801C753508801775350A801274
:2005F900753510800DD20880098F8212029980028E3630085CE53424FCFE8E348E0187028F
:200619000987030987040987061919198A278B288C298E2A7527867528097529808527391D
:2006390085283A85293B74012539FAE4353AFCAE3B8A278C288E29853982853A83853BF07E
:20065900120868FEFF70030203568F8212029980CCE535700302035675371930062DE53401
:2006790014FC8C348C01E7FA3395E0FBFCFE8A278B288C298E2A200566AA277B007C007EE4
:20069900008A278B288C298E2A8054300721E53424FCFE8E348E0187020987030987040903
:2006B90087061919198A278B288C298E2A8030E53424FEFE8E348E01870409870619EE33E3
:2006D90095E0FBFA8C278E288B298A2A200510AA27AB287C007E008A278B288C298E2A30F2
:2006F9000525AA27AB28AC29E52AFE30E717C3E49AFAE49BFBE49CFCE49EFE8A278B288C62
:20071900298E2A8002C205D209A9377E00752B00853582C006C0011202ECD001D00620092A
:200739000BE52BC4FCE7FB4CF7198002A72B0EB209E52745284529452A70D289378E05E59A
:20075900367003753601200224200121ED04FEAC36C3EE9C5015758220C006C005C00412A8
:200779000299D004D005D0061C80E68C3630050E75822DC005120299D00515368023ED6019
:200799002030030E75822BC005120299D0051536800F30040C758220C005120299D00515E9
:2007B90036200122AE368E041EC3ED9C502B3002047C3080027C208C82C006C00512029906
:2007D900D005D00680E0C3ED95365008E536C39DF536800775360080028E36A9378D068E03
:2007F900051EED6026B20920090A09E7C4540FFD8D2B80078705740F5DF52B852B82C00685
:20081900C0011202BCD001D00680D4200103020356AE368E051EED7003020356758220C08D
:1708390006120299D00680EB8F82120299020356852C82852D832211
:0B0986003C4E4F20464C4F41543E00B9
:18085000AA82AB831208686003A380F8C3E5829AF582E5839BF583225E
:0D00060075813B120957E58260030200037B
:1C08680020F71430F6148883A88220F507E6A88375830022E280F7E49322E0229F
:20088400AAF0FBE582850EF0A4FCADF0E583850EF0A42DFDE435F0FEE582850FF0A42DFD1F
:2008A400E5F03EFEE433FFEA850EF0A42EFEE5F03FFFE583850FF0A42EFEE5F03FFFE58287
:2008C4008510F0A42EFEE5F03FFFEB850EF0A42FFFEA850FF0A42FFFE5838510F0A42FFF6D
:0E08E400E5828511F0A42F8EF08D838C822288
:2008F200FB7A20E4FCFDFEFFE5822582F582E58333F583E5F033F5F0EB33FB4017DAE9803F
:2009120042E5822582F582E58333F583E5F033F5F0EB33FBEC33FCED33FDEE33FEEF33FF6D
:20093200EC950EED950FEE9510EF95114013EC950EFCED950FFDEE9510FEEF9511FF438207
:0509520001DABEEB22FA
:040957007582002283
:00000001FF
